:020000040000FA
:020006000528CB
:020008004D2A7F
:06000A00BA20A7015F24EB
:100010008B130130831203178F00A9308D008A11D2
:100020000A129B248B1775255C248B1301308312D5
:1000300003178F00CF308D008A110A129B248B1773
:100040003F30F4000030F50039213730840071086A
:100050005D258B1337308A110A12AF248B17373086
:10006000840070085D258B1337308A110A12AF2483
:100070008B1739280318E5289321FF209321453059
:10008000B7248B130130831203178F00DB308D00F0
:100090008A110A129B248B179321FF20932145304C
:1000A000B7248B130130831203178F00E7308D00C4
:1000B0008A110A129B248B17D6224530B7248B1342
:1000C0000130831203178F00FF308D008A110A124E
:1000D0009B248B170D210318E128BC2283120313E4
:1000E00024082306031D752892282408A3008312E0
:1000F0000313851A7D2885167E28851200004B3053
:10010000B724F1012408F00037308400BA243730D6
:10011000F8004730FA0020258B1347308A110A1265
:10012000AF248B1783120313671897206E2883124E
:1001300003136710CD20D72083160313CF30880018
:10014000000083120313000008168812000008083C
:100150000F3983120313A400A40E83120313081291
:100160008816000008080F3983120313A404DC204A
:10017000D22008008A018316031306309F008316DD
:100180000313850183120313850183160313890169
:1001900081230E30CF235F24080083160313080841
:1001A000A60008008316031326088800080083129F
:1001B00003130808A500080083120313250888000C
:1001C0000800E528E528E528E5288B13013083128F
:1001D00003178F00A6308D008A110A129B248B17FB
:1001E00007284E30B7248B130130831203178F007A
:1001F000A6308D008A110A129B248B1708004E30FE
:10020000B7248B130130831203178F00A3308D00A6
:100210008A110A129B248B170800932103100800EF
:10022000A801FB307321AA007321AB00031C122923
:100230000310080083132030840050308000000039
:100240000008031D3629840A1E29A030840050307E
:10025000800000000008031D3629840A2829831B1A
:10026000332983171B2983130310080083130314F6
:100270000800831203178F01F101F00183160317A1
:100280008C17831203178D01831603170C140000BB
:100290000000831203170E08F700831203170C08DF
:1002A000752577087525831203178D0F44298F0A4A
:1002B000F40B41290800031D4429831203133F3026
:1002C000A905FE30732183120313A802031D7129AF
:1002D000FF30732183120313A902031D7129031038
:1002E000080003100800831203178D0083160317FC
:1002F0008C130C14831203170C08080083160317C1
:100300008C188029831203178D008C008316031725
:100310008C130C158B1355308D00AA308D008C1466
:100320008B170C110800831203130130A200FA305E
:10033000A1003230A000A00B9B29A10B9B29A20B8E
:100340009B29000008004F004B00000045005200B0
:10035000000054004500530054002D00490049009E
:1003600020007600200031002E0030003000000018
:1003700049006E00690074002000700072006F0078
:100380006700720061006D003A002000200020002C
:1003900000005400450053005400200000005000AD
:1003A000520047002000430048004B003A00200064
:1003B00020002000000050005200440054002000A3
:1003C000520041004D0020002000200000004400A9
:1003D0004100540020004500450050004D00200021
:1003E0002000200000004400410054002000530081
:1003F000520041004D00200020002000000053006A
:1004000045005200490041004C002000200020001F
:1004100020002000000049004E0049005400200048
:10042000530045005200490041004C0000005300B9
:1004300054004F0050002000530045005200490076
:1004400041004C0000002000200034003800300043
:10045000300000002000200039003600300030005D
:100460000000200031003900320030003000000070
:100470002000330033003600300030000000200040
:100480003500370036003000300000003100310008
:100490003500320030003000000083120313F000FA
:1004A00003088301F1000A08F2008A010408F3003E
:1004B000831203138C1A83168C1A6B2A831203136C
:1004C0000C1A83160C1A842A831203130C18831631
:1004D0000C18992A8E2A8312031398187A2A18194D
:1004E0007D2A5E197F2A1A080D3A03195E160D3A05
:1004F0001F238E2A181218168E2A1A088E2A1A08F6
:100500000D3A03195E168E2A83120313DE1C8C2A01
:10051000831603130C128E2A3523990083120313BA
:100520007308840072088A0071088300F00E700E50
:100530000900831203131010831203130C1083128B
:10054000031301308F008E0183120313671483128B
:10055000031310148E2A831203130808E600080000
:100560008312031366088800080000308B0083168E
:10057000031300308C000800831203131010831241
:10058000031301308F0000308E008B018C01831625
:1005900003138C010C14831203138C010B178B179C
:1005A00083120313303090001014080083160313D5
:1005B000C030870460309900243098008312031300
:1005C00090309800DE01EC22F422C0308B048316B8
:1005D000031330308C04080083120313A030E100B1
:1005E000E2005E10DE140800831203132030E300E3
:1005F000E4005E11DE150800831603130C1283124B
:1006000003135E18192B8313E0006208840060084E
:100610008000B3306206A030031D620AE20061026E
:1006200003195E14DE10831603130C1683120313D2
:100630000800831603130C16831203130800831299
:1006400003135E19342B8317E000640884006008EC
:100650008000333064062030031D640AE400630226
:1006600003195E15DE110800080083120313DE185B
:10067000482B831361088400B3306106A030031D4A
:10068000610AE1005E1062060319DE14000808002A
:10069000003483120313DE19662B831603138C12A6
:1006A00083120313831763088400333063062030FA
:1006B000031D630AE3005E1164060319DE150008DA
:1006C000831603138C168312031308008316031377
:1006D0008C16831203130034831203135E12DE1987
:1006E00008004923DF00FC225F080D3A031D6F2B31
:0206F000080000
:0E06F200013400348C340534203400343734A5
:020700000034C3
:0E070200652465246524831203135D14831699
:100710000313003088008316031309100911891090
:100720008312031309100911891083120313303047
:1007300088000915000000000000091165248312DB
:100740000313303088000915000000000000091173
:100750007024831203133030880009150000000054
:1007600000000911831203132030D9005916D9153E
:100770005908CF230830CF230130CF230430831210
:100780000313D900D9145908CF230F308312031350
:10079000D9005908CF23831203135D100800831278
:1007A0000313D900831203135D18D72BD92B802490
:1007B000DA2B802483120313091009118910831284
:1007C0000313590883120313880009150000000061
:1007D00000000911080083120313D900802483123A
:1007E0000313891009140911831203135908831282
:1007F000031388000915000000000000091108001B
:100800008312031389140910091183160313FF308F
:100810008800831203130915000000000000000087
:100820000808091183120313DB00831603138801E0
:10083000831203135D18212C83120313DB1B022C7C
:10084000080083120313DB1B022C08008024831290
:10085000031389140914091183160313FF30880048
:1008600083120313091500000000000000000000BF
:100870000808091183120313DB0083160313880190
:10088000831203135B08080083120313D70083123B
:100890000313F030880583120313570883120313E0
:1008A00088048312031309150000000000000911D9
:1008B00008008030CF230800C030CF23080001306B
:1008C000CF2308000230CF23080083120313D7017F
:1008D000D8011830D800D70B6B2CD80B6B2C080024
:1008E000831203137B30D700D70B742C080002301F
:1008F000D7007D30D800D80B7B2CD70B7B2C080081
:1009000083120313FB30DC0083120313DC0B892CEE
:100910000800831203137B30D700D70B8D2C842C57
:10092000831203130230D7007D30D800D80B962CE9
:10093000D70B962C842C831603178C17831603175A
:100940000C1400000000831203170C0803190800A0
:10095000EB23831203178D0F9E2C8F0A9E2C84008D
:10096000000803190800EB23840FB02C080080381E
:04097000CF23080089
:0C09740003101030F4008001840A8001A0
:10098000840A80010408F30073088400F00DF10D5F
:10099000800D8403800D8403800DF40BD02C003473
:1009A00073088400FC248403FC248403FC24C42CEA
:1009B0000800F50103101030F4008001840A800162
:1009C000840A80010408F300F11B072D73088400DA
:1009D000F00DF10D800D8403800D8403800DF40B68
:1009E000F42C75188017080073088400FC24840315
:1009F000FC248403FC24E62C03300007F200F219E7
:100A0000800030300007F200F21B800008007030D8
:100A100014257514E62C723014257208F00703189B
:100A2000F10A7308F107080084008009800A0308AE
:100A3000840A8300031980038009840304080800E2
:100A400078088400801B492D0330F400352D780888
:100A500084000008F200F20E0F30F2053030F20789
:100A60007A08840072088000FA0A78088400000876
:100A7000F2000F30F2053030F2077A088400720875
:100A80008000FA0AF80AF40B272D840A003080004F
:100A900008007A0884002D308000FA0A242DF10025
:100AA0000830F4003030F10D031831308000840A32
:100AB000F40B522D003080000800F1006D25840AEF
:100AC0008000F10CF10CF10CF10C6D258403800019
:100AD000840A840A0030800008000F307105F73E58
:100AE0000318073E303E093E08007106F200700808
:100AF000F1007208F000700E0F39F006700EF03938
:100B0000F106F00E0310700D0318013EF106E039F6
:080B1000F106F00EF0060800EA
:080B1800003400340034003405
:100B20000034003400340034003400340034003425
:100B30000034003400340034003400340034003415
:100B40000034003400340034003400340034003405
:100B500000340034003400340034003400340034F5
:100B600000340034003400340034003400340034E5
:100B700000340034003400340034003400340034D5
:060B8000003400340034D3
:043FFC005500AA00C2
:02400E007A3FF7
:1042000076002E00200031002E003000300000002B
:0E421000C400600032001D0011000900010012
:00000001FF
